:100000000C9434000C943E000C943E000C943E0082
:100010000C943E000C943E000C943E000C943E0068
:100020000C943E000C943E000C943E000C943E0058
:100030000C943E000C943E000C943E000C943E0048
:100040000C943E000C943E000C943E000C943E0038
:100050000C943E000C943E000C943E000C943E0028
:100060000C943E000C943E0011241FBECFEFD8E04C
:10007000DEBFCDBF0E9466000C94E1000C9400002E
:1000800080E480937C0087E880937A0008959091C3
:100090007C00987F90937C0090917C008770892BE6
:1000A00080937C0080917A00806480937A008091B4
:1000B0007A0084FFFCCF80917A00806180937A007F
:1000C0002091780030917900C901089580E48093EF
:1000D0007C0087E880937A0084B5836884BD85B509
:1000E000836085BD569A40E951E0E3EFF3EBA9E662
:1000F000B4E380917C00887F80937C0080917C00B9
:1001000080937C0080917A00806480937A00809153
:100110007A0084FFFCCF80917A00806180937A001E
:10012000609178007091790020E030E0CA01019779
:10013000F1F72F5F3F4F87E220313807B9F7693C6D
:10014000710568F4B7BD20E030E0CA010197F1F70E
:100150002F5F3F4F8EE420323807B9F7CACFCB016B
:10016000825D90408352914068F4A7BD20E030E06A
:10017000CA010197F1F72F5F3F4F8EE42032380715
:10018000B9F7B7CF6E5F71406F3B710568F4F7BD8B
:1001900020E030E0CA010197F1F72F5F3F4F8EE476
:1001A00020323807B9F7A5CFE7BD20E030E0CA011B
:1001B0000197F1F72F5F3F4F8EE420323807B9F7F0
:0601C00098CFF894FFCF78
:00000001FF
